{
  "_format": "hh-sol-artifact-1",
  "contractName": "RealEstateFactory",
  "sourceName": "src/RealEstateFactory.sol",
  "abi": [
    {
      "inputs": [
        {
          "internalType": "address",
          "name": "owner",
          "type": "address"
        }
      ],
      "stateMutability": "nonpayable",
      "type": "constructor"
    },
    {
      "inputs": [
        {
          "internalType": "address",
          "name": "owner",
          "type": "address"
        }
      ],
      "name": "OwnableInvalidOwner",
      "type": "error"
    },
    {
      "inputs": [
        {
          "internalType": "address",
          "name": "account",
          "type": "address"
        }
      ],
      "name": "OwnableUnauthorizedAccount",
      "type": "error"
    },
    {
      "anonymous": false,
      "inputs": [
        {
          "indexed": true,
          "internalType": "address",
          "name": "previousOwner",
          "type": "address"
        },
        {
          "indexed": true,
          "internalType": "address",
          "name": "newOwner",
          "type": "address"
        }
      ],
      "name": "OwnershipTransferred",
      "type": "event"
    },
    {
      "anonymous": false,
      "inputs": [
        {
          "indexed": true,
          "internalType": "address",
          "name": "contractAddress",
          "type": "address"
        },
        {
          "indexed": true,
          "internalType": "string",
          "name": "tokenID",
          "type": "string"
        },
        {
          "indexed": true,
          "internalType": "address",
          "name": "owner",
          "type": "address"
        },
        {
          "indexed": false,
          "internalType": "string",
          "name": "uri",
          "type": "string"
        }
      ],
      "name": "RealEstateCreated",
      "type": "event"
    },
    {
      "inputs": [
        {
          "internalType": "address",
          "name": "minter",
          "type": "address"
        }
      ],
      "name": "addMinter",
      "outputs": [],
      "stateMutability": "nonpayable",
      "type": "function"
    },
    {
      "inputs": [
        {
          "internalType": "string",
          "name": "tokenType",
          "type": "string"
        },
        {
          "internalType": "string",
          "name": "plazaId",
          "type": "string"
        },
        {
          "internalType": "string",
          "name": "floorId",
          "type": "string"
        },
        {
          "internalType": "string",
          "name": "uri",
          "type": "string"
        }
      ],
      "name": "createRealEstate",
      "outputs": [],
      "stateMutability": "nonpayable",
      "type": "function"
    },
    {
      "inputs": [
        {
          "internalType": "string",
          "name": "",
          "type": "string"
        }
      ],
      "name": "floorCount",
      "outputs": [
        {
          "internalType": "uint256",
          "name": "",
          "type": "uint256"
        }
      ],
      "stateMutability": "view",
      "type": "function"
    },
    {
      "inputs": [
        {
          "internalType": "address",
          "name": "account",
          "type": "address"
        }
      ],
      "name": "isMinter",
      "outputs": [
        {
          "internalType": "bool",
          "name": "",
          "type": "bool"
        }
      ],
      "stateMutability": "view",
      "type": "function"
    },
    {
      "inputs": [],
      "name": "owner",
      "outputs": [
        {
          "internalType": "address",
          "name": "",
          "type": "address"
        }
      ],
      "stateMutability": "view",
      "type": "function"
    },
    {
      "inputs": [],
      "name": "plazaCount",
      "outputs": [
        {
          "internalType": "uint256",
          "name": "",
          "type": "uint256"
        }
      ],
      "stateMutability": "view",
      "type": "function"
    },
    {
      "inputs": [
        {
          "internalType": "address",
          "name": "minter",
          "type": "address"
        }
      ],
      "name": "removeMinter",
      "outputs": [],
      "stateMutability": "nonpayable",
      "type": "function"
    },
    {
      "inputs": [],
      "name": "renounceOwnership",
      "outputs": [],
      "stateMutability": "nonpayable",
      "type": "function"
    },
    {
      "inputs": [
        {
          "internalType": "string",
          "name": "",
          "type": "string"
        }
      ],
      "name": "roomCount",
      "outputs": [
        {
          "internalType": "uint256",
          "name": "",
          "type": "uint256"
        }
      ],
      "stateMutability": "view",
      "type": "function"
    },
    {
      "inputs": [
        {
          "internalType": "address",
          "name": "newOwner",
          "type": "address"
        }
      ],
      "name": "transferOwnership",
      "outputs": [],
      "stateMutability": "nonpayable",
      "type": "function"
    }
  ],
  "bytecode": "0x608060405234801561001057600080fd5b50604051612cad380380612cad83398101604081905261002f916100be565b806001600160a01b03811661005e57604051631e4fbdf760e01b81526000600482015260240160405180910390fd5b6100678161006e565b50506100ee565b600080546001600160a01b038381166001600160a01b0319831681178455604051919092169283917f8be0079c531659141344cd1fd0a4f28419497f9722a3daafe3b4186f6b6457e09190a35050565b6000602082840312156100d057600080fd5b81516001600160a01b03811681146100e757600080fd5b9392505050565b612bb0806100fd6000396000f3fe60806040523480156200001157600080fd5b50600436106200009a5760003560e01c80633092afd5146200009f578063715018a614620000b85780638147ab6c14620000c25780638213549b14620001035780638da5cb5b146200011a57806392aad00d1462000133578063983b2d56146200013d578063aa271e1a1462000154578063aff9b4861462000194578063f2fde38b14620001c2575b600080fd5b620000b6620000b0366004620008d3565b620001d9565b005b620000b662000204565b620000f0620000d3366004620009a8565b805160208183018101805160038252928201919093012091525481565b6040519081526020015b60405180910390f35b620000b662000114366004620009e0565b6200021c565b62000124620002d9565b604051620000fa919062000a99565b620000f060015481565b620000b66200014e366004620008d3565b620002e8565b6200018362000165366004620008d3565b6001600160a01b031660009081526004602052604090205460ff1690565b6040519015158152602001620000fa565b620000f0620001a5366004620009a8565b805160208183018101805160028252928201919093012091525481565b620000b6620001d3366004620008d3565b62000316565b620001e362000364565b6001600160a01b03166000908152600460205260409020805460ff19169055565b6200020e62000364565b6200021a60006200039b565b565b60006200022b858585620003eb565b9050600033836040516200023f90620008c5565b6200024c92919062000b01565b604051809103906000f08015801562000269573d6000803e3d6000fd5b509050336001600160a01b03168260405162000286919062000b27565b6040518091039020826001600160a01b03167fbff852994eb64f5cf8f8d08bff40210fb1e38e75586c3e01788797937b2a682286604051620002c9919062000b45565b60405180910390a4505050505050565b6000546001600160a01b031690565b620002f262000364565b6001600160a01b03166000908152600460205260409020805460ff19166001179055565b6200032062000364565b6001600160a01b03811662000356576000604051631e4fbdf760e01b81526004016200034d919062000a99565b60405180910390fd5b62000361816200039b565b50565b336200036f620002d9565b6001600160a01b0316146200021a573360405163118cdaa760e01b81526004016200034d919062000a99565b600080546001600160a01b038381166001600160a01b0319831681178455604051919092169283917f8be0079c531659141344cd1fd0a4f28419497f9722a3daafe3b4186f6b6457e09190a35050565b60607f793cb61e7651a9d5f0466d754a5ff642dff6f5f793bcb0c7c140638c1e01ba5b8460405160200162000421919062000b27565b60405160208183030381529060405280519060200120036200048a57600180549060006200044f8362000b70565b9190505550620004616001546200072e565b60405160200162000473919062000b8c565b604051602081830303815290604052905062000727565b7ff3ef57a8ff8f52f1c78565ed074ee88f199e8ea4c260e9e862df1d1f55fe212d84604051602001620004be919062000b27565b604051602081830303815290604052805190602001200362000596576000835111620005215760405162461bcd60e51b8152602060048201526011602482015270141b185e98481251081c995c5d5a5c9959607a1b60448201526064016200034d565b60028360405162000533919062000b27565b9081526040519081900360200190208054906000620005528362000b70565b919050555082620005836002856040516200056e919062000b27565b9081526020016040518091039020546200072e565b6040516020016200047392919062000bb7565b7f6b3b08b03dbb0ad0beb2f8c106cd0c8d25f2ef783ea1ffb3e2f6061cae08600484604051602001620005ca919062000b27565b6040516020818303038152906040528051906020012003620006e95760008351118015620005f9575060008251115b620006455760405162461bcd60e51b815260206004820152601b60248201527a141b185e9848185b9908119b1bdbdc881251081c995c5d5a5c9959602a1b60448201526064016200034d565b600383836040516020016200065c92919062000bf7565b60408051601f1981840301815290829052620006789162000b27565b9081526040519081900360200190208054906000620006978362000b70565b91905055508282620006d560038686604051602001620006b992919062000bf7565b60408051601f19818403018152908290526200056e9162000b27565b604051602001620004739392919062000c2a565b60405162461bcd60e51b8152602060048201526012602482015271496e76616c696420746f6b656e207479706560701b60448201526064016200034d565b9392505050565b6060600a8210156200076d576200074582620007a5565b60405160200162000757919062000c80565b6040516020818303038152906040529050919050565b606482101562000794576200078282620007a5565b60405160200162000757919062000cac565b6200079f82620007a5565b92915050565b606081600003620007cd5750506040805180820190915260018152600360fc1b602082015290565b8160005b8115620007fd5780620007e48162000b70565b9150620007f59050600a8362000ce0565b9150620007d1565b6000816001600160401b038111156200081a576200081a620008fe565b6040519080825280601f01601f19166020018201604052801562000845576020820181803683370190505b5090505b8415620008bd576200085d60018362000cf7565b91506200086c600a8662000d0d565b6200087990603062000d24565b60f81b81838151811062000891576200089162000d3a565b60200101906001600160f81b031916908160001a905350620008b5600a8662000ce0565b945062000849565b949350505050565b611e538062000d5183390190565b600060208284031215620008e657600080fd5b81356001600160a01b03811681146200072757600080fd5b634e487b7160e01b600052604160045260246000fd5b600082601f8301126200092657600080fd5b81356001600160401b0380821115620009435762000943620008fe565b604051601f8301601f19908116603f011681019082821181831017156200096e576200096e620008fe565b816040528381528660208588010111156200098857600080fd5b836020870160208301376000602085830101528094505050505092915050565b600060208284031215620009bb57600080fd5b81356001600160401b03811115620009d257600080fd5b620008bd8482850162000914565b60008060008060808587031215620009f757600080fd5b84356001600160401b038082111562000a0f57600080fd5b62000a1d8883890162000914565b9550602087013591508082111562000a3457600080fd5b62000a428883890162000914565b9450604087013591508082111562000a5957600080fd5b62000a678883890162000914565b9350606087013591508082111562000a7e57600080fd5b5062000a8d8782880162000914565b91505092959194509250565b6001600160a01b0391909116815260200190565b60005b8381101562000aca57818101518382015260200162000ab0565b50506000910152565b6000815180845262000aed81602086016020860162000aad565b601f01601f19169290920160200192915050565b6001600160a01b0383168152604060208201819052600090620008bd9083018462000ad3565b6000825162000b3b81846020870162000aad565b9190910192915050565b60208152600062000727602083018462000ad3565b634e487b7160e01b600052601160045260246000fd5b60006001820162000b855762000b8562000b5a565b5060010190565b600560fc1b81526000825162000baa81600185016020870162000aad565b9190910160010192915050565b6000835162000bcb81846020880162000aad565b602360f91b908301908152835162000beb81600184016020880162000aad565b01600101949350505050565b6000835162000c0b81846020880162000aad565b83519083019062000c2181836020880162000aad565b01949350505050565b6000845162000c3e81846020890162000aad565b84519083019062000c5481836020890162000aad565b602960f91b9101908152835162000c7381600184016020880162000aad565b0160010195945050505050565b61030360f41b81526000825162000c9f81600285016020870162000aad565b9190910160020192915050565b600360fc1b81526000825162000baa81600185016020870162000aad565b634e487b7160e01b600052601260045260246000fd5b60008262000cf25762000cf262000cca565b500490565b818103818111156200079f576200079f62000b5a565b60008262000d1f5762000d1f62000cca565b500690565b808201808211156200079f576200079f62000b5a565b634e487b7160e01b600052603260045260246000fdfe60a0604052600060809081526003906200001a9082620001c8565b503480156200002857600080fd5b5060405162001e5338038062001e538339810160408190526200004b9162000294565b81816200005881620000bd565b506001600160a01b0381166200008857604051631e4fbdf760e01b81526000600482015260240160405180910390fd5b6200009381620000cf565b50506001600160a01b03166000908152600760205260409020805460ff191660011790556200038a565b6002620000cb8282620001c8565b5050565b600580546001600160a01b038381166001600160a01b0319831681179093556040519116919082907f8be0079c531659141344cd1fd0a4f28419497f9722a3daafe3b4186f6b6457e090600090a35050565b634e487b7160e01b600052604160045260246000fd5b600181811c908216806200014c57607f821691505b6020821081036200016d57634e487b7160e01b600052602260045260246000fd5b50919050565b601f821115620001c3576000816000526020600020601f850160051c810160208610156200019e5750805b601f850160051c820191505b81811015620001bf57828155600101620001aa565b5050505b505050565b81516001600160401b03811115620001e457620001e462000121565b620001fc81620001f5845462000137565b8462000173565b602080601f8311600181146200023457600084156200021b5750858301515b600019600386901b1c1916600185901b178555620001bf565b600085815260208120601f198616915b82811015620002655788860151825594840194600190910190840162000244565b5085821015620002845787850151600019600388901b60f8161c191681555b5050505050600190811b01905550565b60008060408385031215620002a857600080fd5b82516001600160a01b0381168114620002c057600080fd5b602084810151919350906001600160401b0380821115620002e057600080fd5b818601915086601f830112620002f557600080fd5b8151818111156200030a576200030a62000121565b604051601f8201601f19908116603f0116810190838211818310171562000335576200033562000121565b8160405282815289868487010111156200034e57600080fd5b600093505b8284101562000372578484018601518185018701529285019262000353565b60008684830101528096505050505050509250929050565b611ab9806200039a6000396000f3fe608060405234801561001057600080fd5b50600436106100fb5760003560e01c8062fdd58e1461010057806301ffc9a7146101265780630e89341c146101495780632eb2c2d6146101695780633092afd51461017e5780634e1273f4146101915780634f558e79146101b1578063715018a6146101c4578063862440e2146101cc5780638da5cb5b146101df578063938e3d7b146101f4578063983b2d5614610207578063a22cb4651461021a578063a4b645eb1461022d578063aa271e1a14610240578063e8a3d4851461026c578063e985e9c514610274578063f242432a14610287578063f2fde38b1461029a578063f77ee79d146102ad575b600080fd5b61011361010e36600461113d565b6102cd565b6040519081526020015b60405180910390f35b61013961013436600461117d565b6102f5565b604051901515815260200161011d565b61015c61015736600461119a565b610300565b60405161011d9190611203565b61017c61017736600461135d565b6103e0565b005b61017c61018c366004611406565b610441565b6101a461019f366004611421565b610492565b60405161011d919061151c565b6101396101bf36600461119a565b61055a565b61017c61056e565b61017c6101da36600461152f565b610582565b6101e761060f565b60405161011d919061156b565b61017c61020236600461157f565b61061e565b61017c610215366004611406565b61066e565b61017c6102283660046115bb565b6106c2565b61017c61023b3660046115f7565b6106d1565b61013961024e366004611406565b6001600160a01b031660009081526007602052604090205460ff1690565b61015c61079b565b61013961028236600461164e565b610829565b61017c610295366004611681565b610857565b61017c6102a8366004611406565b6108a7565b6101136102bb36600461119a565b60009081526008602052604090205490565b6000818152602081815260408083206001600160a01b03861684529091529020545b92915050565b60006102ef826108e5565b60008181526004602052604081208054606092919061031e906116e5565b80601f016020809104026020016040519081016040528092919081815260200182805461034a906116e5565b80156103975780601f1061036c57610100808354040283529160200191610397565b820191906000526020600020905b81548152906001019060200180831161037a57829003601f168201915b5050505050905060008151116103b5576103b083610935565b6103d9565b6003816040516020016103c992919061171f565b6040516020818303038152906040525b9392505050565b336001600160a01b038616811480159061040157506103ff8682610829565b155b1561042c57808660405163711bec9160e11b81526004016104239291906117a6565b60405180910390fd5b61043986868686866109c9565b505050505050565b610449610a30565b6001600160a01b038116600081815260076020526040808220805460ff19169055517fe94479a9f7e1952cc78f2d6baab678adc1b772d936c6583def489e524cb666929190a250565b606081518351146104c35781518351604051635b05999160e01b815260048101929092526024820152604401610423565b600083516001600160401b038111156104de576104de611216565b604051908082528060200260200182016040528015610507578160200160208202803683370190505b50905060005b84518110156105525761052d6105238683610a62565b61010e8684610a62565b82828151811061053f5761053f6117c0565b602090810291909101015260010161050d565b509392505050565b60008061056683610300565b511192915050565b610576610a30565b6105806000610a70565b565b3360008181526007602052604090205460ff166105b15760405162461bcd60e51b8152600401610423906117d6565b60006105bd33856102cd565b116106005760405162461bcd60e51b81526020600482015260136024820152722737ba103a3432903a37b5b2b71037bbb732b960691b6044820152606401610423565b61060a8383610ac2565b505050565b6005546001600160a01b031690565b610626610a30565b6006610632828261184e565b507f905d981207a7d0b6c62cc46ab0be2a076d0298e4a86d0ab79882dbd01ac373786006604051610663919061190d565b60405180910390a150565b610676610a30565b6001600160a01b038116600081815260076020526040808220805460ff19166001179055517f6ae172837ea30b801fbfcdd4108aa1d5bf8ff775444fd70256b44e6bf3dfc3f69190a250565b6106cd338383610b1f565b5050565b3360008181526007602052604090205460ff166107005760405162461bcd60e51b8152600401610423906117d6565b61070c86868685610bb5565b6000858152600860205260408120805486929061072a90849061199d565b9091555050825115610745576107408584610ac2565b610751565b61074e85610300565b92505b856001600160a01b0316857f49b4e4c6879cdc85b51d8c3b572252aaa7842edb863810854acb6d2ed420d9628560405161078b9190611203565b60405180910390a3505050505050565b600680546107a8906116e5565b80601f01602080910402602001604051908101604052809291908181526020018280546107d4906116e5565b80156108215780601f106107f657610100808354040283529160200191610821565b820191906000526020600020905b81548152906001019060200180831161080457829003601f168201915b505050505081565b6001600160a01b03918216600090815260016020908152604080832093909416825291909152205460ff1690565b336001600160a01b038616811480159061087857506108768682610829565b155b1561089a57808660405163711bec9160e11b81526004016104239291906117a6565b6104398686868686610bfe565b6108af610a30565b6001600160a01b0381166108d9576000604051631e4fbdf760e01b8152600401610423919061156b565b6108e281610a70565b50565b60006001600160e01b03198216636cdb3d1360e11b148061091657506001600160e01b031982166303a24d0760e21b145b806102ef57506301ffc9a760e01b6001600160e01b03198316146102ef565b606060028054610944906116e5565b80601f0160208091040260200160405190810160405280929190818152602001828054610970906116e5565b80156109bd5780601f10610992576101008083540402835291602001916109bd565b820191906000526020600020905b8154815290600101906020018083116109a057829003601f168201915b50505050509050919050565b6001600160a01b0384166109f3576000604051632bfa23e760e11b8152600401610423919061156b565b6001600160a01b038516610a1c576000604051626a0d4560e21b8152600401610423919061156b565b610a298585858585610c78565b5050505050565b33610a3961060f565b6001600160a01b031614610580573360405163118cdaa760e01b8152600401610423919061156b565b602090810291909101015190565b600580546001600160a01b038381166001600160a01b0319831681179093556040519116919082907f8be0079c531659141344cd1fd0a4f28419497f9722a3daafe3b4186f6b6457e090600090a35050565b6000828152600460205260409020610ada828261184e565b50817f6bb7ff708619ba0610cba295a58592e0451dee2622938c8755667688daf3529b610b0684610300565b604051610b139190611203565b60405180910390a25050565b6001600160a01b038216610b4857600060405162ced3e160e81b8152600401610423919061156b565b6001600160a01b03838116600081815260016020908152604080832094871680845294825291829020805460ff191686151590811790915591519182527f17307eab39ab6107e8899845ad3d59bd9653f200f220920489ca2b5937696c31910160405180910390a3505050565b6001600160a01b038416610bdf576000604051632bfa23e760e11b8152600401610423919061156b565b600080610bec8585610cdd565b91509150610439600087848487610c78565b6001600160a01b038416610c28576000604051632bfa23e760e11b8152600401610423919061156b565b6001600160a01b038516610c51576000604051626a0d4560e21b8152600401610423919061156b565b600080610c5e8585610cdd565b91509150610c6f8787848487610c78565b50505050505050565b610c8485858585610d05565b6001600160a01b03841615610a295782513390600103610ccf576000610caa8582610a62565b90506000610cb88582610a62565b9050610cc8838989858589610f2f565b5050610439565b610439818787878787611041565b6040805160018082526020820194909452808201938452606081019290925260808201905291565b8051825114610d345781518151604051635b05999160e01b815260048101929092526024820152604401610423565b3360005b8351811015610e44576000610d4d8583610a62565b90506000610d5b8584610a62565b90506001600160a01b03881615610df5576000828152602081815260408083206001600160a01b038c16845290915290205481811015610dce576040516303dee4c560e01b81526001600160a01b038a166004820152602481018290526044810183905260648101849052608401610423565b6000838152602081815260408083206001600160a01b038d16845290915290209082900390555b6001600160a01b03871615610e3a576000828152602081815260408083206001600160a01b038b16845290915281208054839290610e3490849061199d565b90915550505b5050600101610d38565b508251600103610ed1576000610e5a8482610a62565b90506000610e688482610a62565b9050856001600160a01b0316876001600160a01b0316846001600160a01b03167fc3d58168c5ae7397731d063d5bbf3d657854427343f4c083240f7aacaa2d0f628585604051610ec2929190918252602082015260400190565b60405180910390a45050610a29565b836001600160a01b0316856001600160a01b0316826001600160a01b03167f4a39dc06d4c0dbc64b70af90fd698a233a518aa5d07e595d983b8c0526c8f7fb8686604051610f209291906119be565b60405180910390a45050505050565b6001600160a01b0384163b156104395760405163f23a6e6160e01b81526001600160a01b0385169063f23a6e6190610f7390899089908890889088906004016119ec565b6020604051808303816000875af1925050508015610fae575060408051601f3d908101601f19168201909252610fab91810190611a31565b60015b61100e573d808015610fdc576040519150601f19603f3d011682016040523d82523d6000602084013e610fe1565b606091505b5080516000036110065784604051632bfa23e760e11b8152600401610423919061156b565b805181602001fd5b6001600160e01b0319811663f23a6e6160e01b14610c6f5784604051632bfa23e760e11b8152600401610423919061156b565b6001600160a01b0384163b156104395760405163bc197c8160e01b81526001600160a01b0385169063bc197c81906110859089908990889088908890600401611a4e565b6020604051808303816000875af19250505080156110c0575060408051601f3d908101601f191682019092526110bd91810190611a31565b60015b6110ee573d808015610fdc576040519150601f19603f3d011682016040523d82523d6000602084013e610fe1565b6001600160e01b0319811663bc197c8160e01b14610c6f5784604051632bfa23e760e11b8152600401610423919061156b565b80356001600160a01b038116811461113857600080fd5b919050565b6000806040838503121561115057600080fd5b61115983611121565b946020939093013593505050565b6001600160e01b0319811681146108e257600080fd5b60006020828403121561118f57600080fd5b81356103d981611167565b6000602082840312156111ac57600080fd5b5035919050565b60005b838110156111ce5781810151838201526020016111b6565b50506000910152565b600081518084526111ef8160208601602086016111b3565b601f01601f19169290920160200192915050565b6020815260006103d960208301846111d7565b634e487b7160e01b600052604160045260246000fd5b604051601f8201601f191681016001600160401b038111828210171561125457611254611216565b604052919050565b60006001600160401b0382111561127557611275611216565b5060051b60200190565b600082601f83011261129057600080fd5b813560206112a56112a08361125c565b61122c565b8083825260208201915060208460051b8701019350868411156112c757600080fd5b602086015b848110156112e357803583529183019183016112cc565b509695505050505050565b600082601f8301126112ff57600080fd5b81356001600160401b0381111561131857611318611216565b61132b601f8201601f191660200161122c565b81815284602083860101111561134057600080fd5b816020850160208301376000918101602001919091529392505050565b600080600080600060a0868803121561137557600080fd5b61137e86611121565b945061138c60208701611121565b935060408601356001600160401b03808211156113a857600080fd5b6113b489838a0161127f565b945060608801359150808211156113ca57600080fd5b6113d689838a0161127f565b935060808801359150808211156113ec57600080fd5b506113f9888289016112ee565b9150509295509295909350565b60006020828403121561141857600080fd5b6103d982611121565b6000806040838503121561143457600080fd5b82356001600160401b038082111561144b57600080fd5b818501915085601f83011261145f57600080fd5b8135602061146f6112a08361125c565b82815260059290921b8401810191818101908984111561148e57600080fd5b948201945b838610156114b3576114a486611121565b82529482019490820190611493565b965050860135925050808211156114c957600080fd5b506114d68582860161127f565b9150509250929050565b60008151808452602080850194506020840160005b83811015611511578151875295820195908201906001016114f5565b509495945050505050565b6020815260006103d960208301846114e0565b6000806040838503121561154257600080fd5b8235915060208301356001600160401b0381111561155f57600080fd5b6114d6858286016112ee565b6001600160a01b0391909116815260200190565b60006020828403121561159157600080fd5b81356001600160401b038111156115a757600080fd5b6115b3848285016112ee565b949350505050565b600080604083850312156115ce57600080fd5b6115d783611121565b9150602083013580151581146115ec57600080fd5b809150509250929050565b600080600080600060a0868803121561160f57600080fd5b61161886611121565b9450602086013593506040860135925060608601356001600160401b038082111561164257600080fd5b6113d689838a016112ee565b6000806040838503121561166157600080fd5b61166a83611121565b915061167860208401611121565b90509250929050565b600080600080600060a0868803121561169957600080fd5b6116a286611121565b94506116b060208701611121565b9350604086013592506060860135915060808601356001600160401b038111156116d957600080fd5b6113f9888289016112ee565b600181811c908216806116f957607f821691505b60208210810361171957634e487b7160e01b600052602260045260246000fd5b50919050565b600080845461172d816116e5565b60018281168015611745576001811461175a57611789565b60ff1984168752821515830287019450611789565b8860005260208060002060005b858110156117805781548a820152908401908201611767565b50505082870194505b50505050835161179d8183602088016111b3565b01949350505050565b6001600160a01b0392831681529116602082015260400190565b634e487b7160e01b600052603260045260246000fd5b60208082526016908201527521b0b63632b91034b9903737ba10309036b4b73a32b960511b604082015260600190565b601f82111561060a576000816000526020600020601f850160051c8101602086101561182f5750805b601f850160051c820191505b818110156104395782815560010161183b565b81516001600160401b0381111561186757611867611216565b61187b8161187584546116e5565b84611806565b602080601f8311600181146118b057600084156118985750858301515b600019600386901b1c1916600185901b178555610439565b600085815260208120601f198616915b828110156118df578886015182559484019460019091019084016118c0565b50858210156118fd5787850151600019600388901b60f8161c191681555b5050505050600190811b01905550565b6000602080835260008454611921816116e5565b8060208701526040600180841660008114611943576001811461195f5761198f565b60ff19851660408a0152604084151560051b8a0101955061198f565b89600052602060002060005b858110156119865781548b820186015290830190880161196b565b8a016040019650505b509398975050505050505050565b808201808211156102ef57634e487b7160e01b600052601160045260246000fd5b6040815260006119d160408301856114e0565b82810360208401526119e381856114e0565b95945050505050565b6001600160a01b03868116825285166020820152604081018490526060810183905260a060808201819052600090611a26908301846111d7565b979650505050505050565b600060208284031215611a4357600080fd5b81516103d981611167565b6001600160a01b0386811682528516602082015260a060408201819052600090611a7a908301866114e0565b8281036060840152611a8c81866114e0565b90508281036080840152611aa081856111d7565b9897505050505050505056fea164736f6c6343000816000aa164736f6c6343000816000a",
  "linkReferences": {},
  "deployedLinkReferences": {}
}