{
  "_format": "hh-sol-artifact-1",
  "contractName": "stdError",
  "sourceName": "forge-std/StdError.sol",
  "abi": [
    {
      "inputs": [],
      "name": "arithmeticError",
      "outputs": [
        {
          "internalType": "bytes",
          "name": "",
          "type": "bytes"
        }
      ],
      "stateMutability": "view",
      "type": "function"
    },
    {
      "inputs": [],
      "name": "assertionError",
      "outputs": [
        {
          "internalType": "bytes",
          "name": "",
          "type": "bytes"
        }
      ],
      "stateMutability": "view",
      "type": "function"
    },
    {
      "inputs": [],
      "name": "divisionError",
      "outputs": [
        {
          "internalType": "bytes",
          "name": "",
          "type": "bytes"
        }
      ],
      "stateMutability": "view",
      "type": "function"
    },
    {
      "inputs": [],
      "name": "encodeStorageError",
      "outputs": [
        {
          "internalType": "bytes",
          "name": "",
          "type": "bytes"
        }
      ],
      "stateMutability": "view",
      "type": "function"
    },
    {
      "inputs": [],
      "name": "enumConversionError",
      "outputs": [
        {
          "internalType": "bytes",
          "name": "",
          "type": "bytes"
        }
      ],
      "stateMutability": "view",
      "type": "function"
    },
    {
      "inputs": [],
      "name": "indexOOBError",
      "outputs": [
        {
          "internalType": "bytes",
          "name": "",
          "type": "bytes"
        }
      ],
      "stateMutability": "view",
      "type": "function"
    },
    {
      "inputs": [],
      "name": "memOverflowError",
      "outputs": [
        {
          "internalType": "bytes",
          "name": "",
          "type": "bytes"
        }
      ],
      "stateMutability": "view",
      "type": "function"
    },
    {
      "inputs": [],
      "name": "popError",
      "outputs": [
        {
          "internalType": "bytes",
          "name": "",
          "type": "bytes"
        }
      ],
      "stateMutability": "view",
      "type": "function"
    },
    {
      "inputs": [],
      "name": "zeroVarError",
      "outputs": [
        {
          "internalType": "bytes",
          "name": "",
          "type": "bytes"
        }
      ],
      "stateMutability": "view",
      "type": "function"
    }
  ],
  "bytecode": "0x61022961003a600b82828239805160001a60731461002d57634e487b7160e01b600052600060045260246000fd5b30600052607381538281f3fe730000000000000000000000000000000000000000301460806040526004361061008d5760003560e01c806305ee86121461009257806310332977146100b05780631de45560146100b85780638995290f146100c0578063986c5f68146100c8578063b22dc54d146100d0578063b67689da146100d8578063d160e4de146100e0578063fa784a44146100e8575b600080fd5b61009a6100f0565b6040516100a791906101bf565b60405180910390f35b61009a61012f565b61009a610141565b61009a610153565b61009a610165565b61009a610177565b61009a610189565b61009a61019b565b61009a6101ad565b6032604051602401610102919061020e565b60408051601f198184030181529190526020810180516001600160e01b0316634e487b7160e01b17905281565b6001604051602401610102919061020e565b6021604051602401610102919061020e565b6011604051602401610102919061020e565b6041604051602401610102919061020e565b6031604051602401610102919061020e565b6051604051602401610102919061020e565b6022604051602401610102919061020e565b6012604051602401610102919061020e565b60006020808352835180602085015260005b818110156101ed578581018301518582016040015282016101d1565b506000604082860101526040601f19601f8301168501019250505092915050565b60ff9190911681526020019056fea164736f6c6343000816000a",
  "linkReferences": {},
  "deployedLinkReferences": {}
}